:100000000C94C4010C94FC010C94FC010C94FC01B4
:100010000C94FC010C94FC010C94FC010C94FC016C
:100020000C94FC010C94FC010C9458170C941417BC
:100030000C9455180C94FC010C94FC010C94FC01DC
:100040000C94FC010C94FC010C94FC010C94FC013C
:100050000C94FC010C9431180C94FC010C94FC01E0
:100060000C94FC010C94FC010C94FC010C94FC011C
:100070000C94FC010C94FC010C94FC010C94FC010C
:100080000C94FC010C94FC010C94FC010C94FC01FC
:100090000C94FC010C94FC010C94FC010C94FC01EC
:1000A0000C94FC010C94FC010C94FC0114611A00EA
:1000B000080015001700000000001C0018000C00CC
:1000C0001200130004001600070009000A000000D7
:1000D00000000B000D000E000F0028001D621B64C5
:1000E0000600190005000000000011001000367124
:1000F00037743872000000002B002C420100000011
:1001000001002C4103510000000000001E021F02EC
:100110002002210222020000000023022402250204
:10012000260227022D022E022F0230023102000089
:10013000000034002F00300031003300E1002900BE
:10014000E300E2003400000000004A004D004B00D4
:100150004E0034000000000001000100010000001A
:100160000100010001000000000000001E001F004F
:1001700020002100220000000000230024002500B0
:100180002600270023002400250026002700000069
:1001900000002D002E00350035023302E100500032
:1001A000510052004F00000000002F0030003100CD
:1001B00034024C00000000000100010001000000BA
:1001C0000100010001000000000000003A003B00B7
:1001D0003C003D003E000000000000000000000068
:1001E000000046003F004000410042004300000084
:1001F0000000000000000000000000004400450076
:1002000039000000000000000000005C0000000059
:1002100000000000000000000100010001000000DB
:1002200001000100010000000000000005010902BA
:10023000A10185020901A10005091901290815007C
:1002400025019508750181020501093009311581E3
:10025000257F95027508810609381581257F95014E
:1002600075088106050C0A38021581257F950175F0
:10027000088106C0C005010980A101850319012A72
:10028000B700150126B700950175108100C0050C57
:100290000901A101850419012AA002150126A00265
:1002A000950175108100C005010906A101850605AB
:1002B0000719E029E7150025019508750181020558
:1002C00007190029EF1500250195F0750181020538
:1002D000081901290595057501910295017503918C
:1002E00001C005010906A101050719E029E715006C
:1002F00025019508750181029501750881010507A1
:10030000190029FF150026FF0095067508810005D4
:10031000081901290595057501910295017503914B
:1003200001C009023B00020100A0FA09040000011B
:10033000030101000921110100012240000705818C
:100340000308000109040100010300000009211154
:1003500001000122B60007058203200001120100FE
:100360000200000008EDFE00000001010200010C87
:100370000366006F006B007500330000000403315A
:10038000000000040309040011241FBECFEFDAE0CF
:10039000DEBFCDBF04B603FE18C080915F0290910E
:1003A0006002A0916102B09162028730904BA74039
:1003B000B04B59F410925F021092600210926102E9
:1003C00010926202E0E0F8E3099511E0A0E0B1E0EC
:1003D000E8E0F7E302C005900D92AE34B107D9F71B
:1003E00022E0AEE4B1E001C01D92AF35B207E1F703
:1003F0000E947C180C946C1B0C940000E8EDF0E05B
:1004000080818E7F80831092E2001092DA00109239
:10041000E100A0EEB0E08C9181608C9380818F77B9
:10042000808319BCA7EDB0E08C918E7F8C93808186
:100430008F7E808310922D0208952091E4003091E8
:10044000E50095E6A9012091EC00822F817020FF44
:1004500006C08091E80080FF06C080E008952091EA
:10046000E80022FD1AC080915202882389F085306D
:1004700089F08091EB0085FD0FC02091E400309160
:10048000E50042175307F9F29150E1F684E0089530
:1004900082E0089583E0089581E00895EF92FF924D
:1004A0000F931F93CF937C018B010E941D02C82FD5
:1004B000811117C08091E80085FD0BC08091E80094
:1004C0008E778093E8000E941D02882399F3C82F3D
:1004D00008C0F70181917F018093F100015011095B
:1004E00049F78C2FCF911F910F91FF90EF900895B6
:1004F0008091540287FF13C08091E80082FF06C0FC
:100500008091E8008B778093E80004C080915202CC
:100510008111F2CF0895809152028823D9F38091FE
:10052000E80080FFF8CF8091E8008E77ECCF982F1D
:100530009093E900242F762F50E0891731F07091C5
:10054000EC002091ED005091F00021FD07C09F5F6D
:10055000973071F78093E90081E008953091EB00C6
:100560003E7F3093EB003091ED003D7F3093ED0006
:100570003091EB0031603093EB007093EC002093EE
:10058000ED005093F0002091EE0027FDE0CF80E0D9
:100590000895CF92DF92EF92FF920F931F93CF9324
:1005A000DF93C8EDD0E088818F7E8883E7EDF0E0AF
:1005B00080818160808384E082BF81E080932D020E
:1005C00088818E7F888302EE10E0F80110821092FD
:1005D000DA0081EEC82ED12CF601108288818F7747
:1005E000888388818068888388818F7D888319BC0F
:1005F0001092520210925302109251021092500225
:1006000090EEE92EF12CF70180818B7F8083888129
:100610008160888342E060E080E00E949702F601FA
:1006200080818E7F8083F8018081816080838081DA
:1006300088608083F70180818E7F808388818061DC
:100640008883DF91CF911F910F91FF90EF90DF9002
:10065000CF900895FC0180915A0290915B02861719
:100660009707A0F06115710529F49091E8009E7735
:100670009093E80090E06115710551F4911108C064
:100680008091E80082FF34C080E00895BC01F2CF81
:10069000809152028823C1F18530C1F18091E80038
:1006A00083FD30C08091E80082FDEACF8091E800B0
:1006B00080FFE1CF8091F3002091F200382F611587
:1006C000710519F02830310558F091E028303105D6
:1006D00009F090E02091E8002E772093E800CBCF3E
:1006E00081918093F100615071092F5F3F4FE7CFF7
:1006F00080915202882341F0853041F08091E800DA
:1007000083FFBECF81E0089582E0089583E00895DD
:10071000089580912F0208959C014FB7F89480911D
:10072000240290912502A0912602B09127024FBF8A
:10073000821B930B08952FB7F89480912402909117
:100740002502A0912602B09127022FBF0895209183
:100750000C012223C9F02091280227FF15C0E62FA3
:10076000E695E695E695EE31D8F4E80FF92FF11D00
:10077000677021E030E001C0220F6A95EAF720950A
:100780008281282322830895FC01329608962191C4
:10079000621303C0DF0111971C92E817F907B9F73C
:1007A000089520910C012223C1F02091280227FFF7
:1007B00014C0E62FE695E695E695EE31F8F4E80FDD
:1007C000F92FF11D677021E030E001C0220F6A951A
:1007D000EAF78281822B82830895FC0132962FEF03
:1007E00030E04191641751F02F3F19F4411101C0DD
:1007F000232F3F5F3630A9F72F3F09F40895820F6A
:10080000911D27FD9A95FC01628308952091210294
:10081000309122022817390771F0909322028093B9
:100820002102E0911F02F0912002309721F0008414
:10083000F185E02D0994089520911D0230911E024A
:100840002817390771F090931E0280931D02E091E2
:100850001F02F0912002309721F00680F781E02DF1
:1008600009940895E0911F02F0912002309721F041
:100870000190F081E02D099480E008950E949B038F
:100880009C019091190280911A02982B21F03093CB
:1008900016022093150290911B0280911C02982B46
:1008A00021F03093140220931302E0911F02F09183
:1008B0002002309749F082E0809317020480F5818E
:1008C000E02D87E192E009940895409119028D3E50
:1008D00059F480911A0287FF0DC010921A0241113B
:1008E0000BC01092110208C08E3E81F480911A0252
:1008F00018169CF3442381F080911B0290911C02F6
:10090000892B09F05AC01092100208958F3E49F4C5
:1009100047FFF0CF1092190280911A028111ECCF9B
:10092000E0CF803F19F41416ACF3E4CF90911B0292
:10093000893F29F41916F4F610921B02DBCF8A3F87
:1009400019F497FFD7CFF8CF90911C028B3F29F471
:1009500097FFD0CF10921C02CDCF8C3F19F41916FF
:10096000CCF3C8CF9FE0980F983090F4815F990B3B
:1009700021E030E0B90102C0660F771F8A95E2F7E7
:10098000CB01809590911802892380931802B2CFF1
:100990008D3F31F4809112028E7F80931202AACF94
:1009A0008E3F21F4809112028D7FF7CF8F3F09F0A7
:1009B000A1CF809112028B7FF0CF08958091120217
:1009C00080FD16C081FD16C082FD16C08091100208
:1009D0008823A1F0883280F428E0829FC00111248E
:1009E00068E270E00E94EF1A862F672B39F00895B5
:1009F00082E0089584E0089588E0089581E00895F4
:100A00008091120280FD14C081FD14C082FD16C0C9
:100A100080911102882381F08E3180F420E5829F3D
:100A2000C00111246EE170E00E94EF1A862F089534
:100A300084E1089588E2089588E0089580E50895A6
:100A40008D3E31F40E940005819580931A0208952D
:100A50008E3E19F40E940005F8CF8F3E31F40E94BB
:100A600000058195809319020895803F19F40E9432
:100A70000005F8CF893F29F40E94DE0480931B0211
:100A800008958A3F21F40E94DE048195F7CF8B3FC1
:100A900031F40E94DE04819580931C0208958C3FFE
:100AA00019F40E94DE04F8CF9FE0980F983070F49C
:100AB000815F990B21E030E001C0220F8A95EAF7AF
:100AC00080911802822B8093180208958D3F31F493
:100AD0008091120281608093120208958E3F21F46A
:100AE000809112028260F7CF8F3FB9F78091120296
:100AF0008460F1CF80E00895F894E82FE295EF70DC
:100B0000F0E031A1282F2F7081E090E001C0880F24
:100B10002A95EAF7982F9095932391A392A1892B78
:100B200082A3789408959091280292FF06C0282FFE
:100B300028712830F9F4877F846093FF06C0282F3E
:100B400028712831F1F4877E84612091290220FFE9
:100B500006C0382F38713830D9F4877F816021FF83
:100B600006C0282F28712831D1F4877E816194FD39
:100B7000877E0895282F24712430F9F68B7F8860B2
:100B8000DCCF282F2471243101F78B7E8861DDCFE3
:100B9000382F3171313019F78E7F8860E0CF282FE0
:100BA0002171213121F78E7E8861E1CFCF93DF93D0
:100BB000EC0182389105A9F1D8F58133910509F44A
:100BC00096C048F58932910509F48AC08A9709F4DC
:100BD00095C0C11521E5D20708F0BCC0C11530E5AC
:100BE000D30708F014C1C83ED10508F09CC0C03E30
:100BF000D10560F5C83AD10508F087C0C53AD105DE
:100C000008F0FDC0C130D10509F12097F9F0C430DA
:100C1000D105E0F440C08533910509F45AC0C99765
:100C2000C1F680912802837089F0C0EED0E00EC03A
:100C3000833E910599F170F4803E910501F1823E69
:100C4000910539F68091280282FD21C0CE01DF9105
:100C5000CF910895863E910561F1873E910571F12E
:100C6000843E910509F0B5CF8091290281FFEECF36
:100C700080912802C7EED0E084FD0DC0E7CF8091BF
:100C8000280280FD12C19091290290FFDFCFC3EEB0
:100C9000D0E084FFDBCFD0E0C0E0D8CF8091280245
:100CA00082FD06C19091290290FDBFCF84FFCECF77
:100CB000F2CF8091280283FDDDCFC8CF809128023A
:100CC00083FDF9C09091290291FFF0CFC4EED0E0EE
:100CD000BDCF8091280285FFB9CFC9E2D0E0B6CF61
:100CE0008091280285FFB2CFC5E3D0E0AFCF8091DD
:100CF000280286FFABCFCAE2D0E0A8CF80912802BD
:100D000086FFA4CFC1E3D0E0A1CFCF3BD10518F639
:100D1000C85AD0E0CC0FDD1FC05FDE4F0990D881EC
:100D2000C02DD46493CFC11540E2D40758F4C11547
:100D300081E0D80708F08ACFCD3ED10508F4ABCFCB
:100D4000D06584CFC11590E4D90708F4A4CFDF7033
:100D5000D06A7CCFC11525E5D20700F5C11534E571
:100D6000D30708F08AC0C11543E5D40708F071C065
:100D7000C11582E5D80708F467C0CE0183709927B2
:100D800021E030E002C0220F331F8A95E2F7C695BA
:100D9000C69580E2C89FE001112452C0C11599E5B3
:100DA000D907A8F4C11528E5D20708F06BC0C11512
:100DB00036E5D30708F06FCF8C2F0E949305C82F1C
:100DC000D0E0DC2FCC27CC27DF71D0623FCFC1151C
:100DD0004AE5D40708F45BC0CE01905681159042D5
:100DE00008F059CF8D2F8F710E94930590E0982FB6
:100DF000882788279F719C012C2BE901E6CFC55AD3
:100E0000D0E0C35FDE4FC881D0E0D0641FCFCE01F9
:100E1000E4E096958795EA95E1F783702C2F269567
:100E20002695237040E2249F90011124382B8C2FAB
:100E30008370C1E0D0E002C0CC0FDD1F8A95E2F7DD
:100E4000C22BD32BDC6802CFDC2FCC27C16FD06A3A
:100E5000FDCECE018370992721E030E002C0220F41
:100E6000331F8A95E2F7C695C69590E2C99FE001C7
:100E70001124C22BD32BDA68E9CEDC2FCC27C46F28
:100E8000D06AE4CEDC2FCC27C06FD06ADFCE8C2FA7
:100E90008F700E94930534E0D695C7953A95E1F797
:100EA000CF709C2FEC01D069D1CEC9E3D0E0CECE7B
:100EB000C2EED0E0CBCEC6EED0E0C8CE8091EA0143
:100EC00081111092EA01089580959091E90198238B
:100ED0009093E90108958091C6019091950198132E
:100EE00001C008958F5F8770FACFAF92BF92CF9203
:100EF000DF92EF92FF920F931F93CF93DF93C090F7
:100F0000FA01D090FB01E090FC01F090FD014091CE
:100F1000EB015091EC016091ED017091EE01C42A5A
:100F2000D52AE62AF72ACFE1D0E0082F10E02CE0FE
:100F3000929F000D111D112490E3A92EBC2ED70104
:100F4000C6010C2E04C0B695A795979587950A946F
:100F5000D2F780FD0FC0219788F7B12C8B2DDF9140
:100F6000CF911F910F91FF90EF90DF90CF90BF90A6
:100F7000AF900895AC9EF001AD9EF00D1124E00FEE
:100F8000F11FEE0FFF1FE455FF4F859194910E94D2
:100F9000D605019701F3E2CFCF93DF93EC010E94D6
:100FA0007507EC2FF0E09CE0D99FE00DF11D1124B6
:100FB00090E3899FE00DF11D1124EE0FFF1FE45512
:100FC000FF4F85919491DF91CF910C94D6052CE041
:100FD000929F800D1124982F9770869586958695FF
:100FE00025E0829FF0011124EF58FE4F50E040E0D1
:100FF00080E0219130E0092E02C0369527950A94B1
:10100000E2F721703327042E01C0220F0A94EAF779
:10101000822B4F5F5F4F4530510559F708952CE003
:10102000929F800D1124982F977041E001C0440FCA
:101030009A95EAF786958695869595E0899FF001C1
:101040001124EF58FE4F90E080E070E05191DF01F5
:1010500011979B01082E02C0369527950A94E2F756
:10106000217021952527242325272C93019685304F
:10107000910561F70895FC01808191810E94CC0760
:1010800092959F70963091F058F4925F9F709230D5
:1010900058F4803F19F030F4883E30F481E0089530
:1010A0009A5FF4CF843FD1F380E00895883EB0F397
:1010B000813FD1F7F3CF80932A0270932C02609383
:1010C0002B0280915202843001F582E08093E90086
:1010D0008FEF9091E800815095FD06C095ED9A95AF
:1010E000F1F700008111F5CF8091E80085FF0DC078
:1010F00050E040E063E070E08AE292E00E944E023D
:101100008091E8008E778093E8000895BC0184E028
:101110000C945B08BC0183E00C945B089C0182E0AA
:101120008093E9009FEF8091E800915085FD06C013
:1011300085ED8A95F1F700009111F5CF8091E800D7
:1011400085FF0CC050E040E066E070E0C9010E94FD
:101150004E028091E8008E778093E8000895CF9347
:10116000DF93EC0180910C018823B1F1809128027A
:1011700087FF32C060E282E08093E9008FEF9091B8
:10118000E800815095FD06C095ED9A95F1F70000B5
:101190008111F5CF8091E80085FF1BC080910C0183
:1011A00070E050E040E0811104C050E040E068E0B1
:1011B00070E0CE010E944E028091E8008E7780930D
:1011C000E80080E2FE01A0E3B2E001900D928A9572
:1011D000E1F7DF91CF91089568E081E0CDCF81E024
:1011E0008093E00080E28093D8001092C9008FE1E4
:1011F0009EE40197F1F700C0000087E090EBDC016E
:1012000080935F0290936002A0936102B0936202A8
:1012100088E19CE00FB6F894A895809360000FBE1B
:1012200090936000FFCFCF9384E090E00E941D1B5D
:10123000C82F82E290E00E941D1B982F8C2FCF9127
:1012400008954F925F926F927F928F929F92AF928A
:10125000BF92CF92DF92EF92FF920F931F93CF93A3
:10126000DF93CDB7DEB728970FB6F894DEBF0FBE79
:10127000CDBF8E010F5F1F4F88E0F80111928A9554
:10128000E9F79EE3E92E91E0F92E680122E4422E6F
:1012900021E0522E66246394712C4EE4842E41E0AA
:1012A000942EF70181917F018F3F09F445C0F89496
:1012B000E82FE295EF70F0E021A18F70A30102C04A
:1012C000440F551F8A95E2F7CA01922F982B91A3DC
:1012D00092A18095892382A3789400C0E2E4F1E092
:1012E00021E030E0B12CA12C41914F3F09F476C0B0
:1012F000A42FA295AF70B0E090968C9190E04F70C3
:1013000002C0959587954A95E2F780FD67C0C901AF
:10131000A82AB92A220F331F8E169F0629F7F70134
:10132000319780818F3F11F00E947C0550EA5A95D9
:10133000F1F7F601B182A082F2E0CF0ED11C4E147B
:101340005F0409F0AECF48E050E0B80182EF91E0D1
:101350000E945F1BFF24F394009709F4F12C892B62
:1013600009F43FC088E0F801A2EFB1E001900D92CE
:101370008A95E1F781E08093F1010E949B039093AD
:10138000F0018093EF018091EF019091F0010E94B4
:101390008C03059750F18091F2019091F3019093A5
:1013A000FF018093FE018091F4019091F5019093EB
:1013B0000102809300028091F6019091F7019093D1
:1013C0000302809302028091F8019091F9019093B9
:1013D0000502809304021092F10107C090E080E0C2
:1013E00097CF8091F1018111CECF8F2D28960FB626
:1013F000F894DEBF0FBECDBFDF91CF911F910F914B
:10140000FF90EF90DF90CF90BF90AF909F908F9024
:101410007F906F905F904F9008958091E901909137
:10142000E801892B809350019091EA019923A1F062
:10143000892B8093500180910C018823D9F18091F0
:10144000280287FF37C08EE1E2E5F1E090E08150AD
:1014500098F591110E945E0740E250E068EC71E05F
:1014600080E591E00E945F1B892B59F180E2E0E565
:10147000F1E0A8ECB1E001900D928A95E1F7E091DE
:101480001F02F09120023097E1F080910C01882337
:1014900059F08091280287FF07C080915001809306
:1014A000510186E0809350010280F381E02D80E5B8
:1014B00091E0099486E0C8CF2191222341F29F5FF9
:1014C000C6CF089590E080E00E941C0490E080E088
:1014D0000E9406041092E8010E940D0A86E0E7E1EE
:1014E000F2E0DF011D928A95E9F710921102109245
:1014F0001002109212020C943E040F931F938B0162
:101500009C0106701127222733270630110521057B
:10151000310569F468606093FA017093FB01809370
:10152000FC019093FD011F910F910C94620A677F5B
:10153000F2CF0F931F9341E050E060E070E004C0F1
:10154000440F551F661F771F8A95D2F7CB01BA014A
:1015500060957095809590950091FA011091FB012E
:101560002091FC013091FD0160237123822393239C
:101570001F910F910C947D0A9091C701809589234A
:101580008093C701282F277091F4282F082E000C74
:10159000330B9217130659F09091290292FD07C060
:1015A0008595859585950E94990A1092C7010895A1
:1015B0000F931F9341E050E060E070E004C0440FDF
:1015C000551F661F771F8A95D2F78091FA01909177
:1015D000FB01A091FC01B091FD018A019B01082B48
:1015E000192B2A2B3B2BC901B8011F910F910C9489
:1015F0007D0A6093EB017093EC018093ED01909371
:10160000EE010C94620A1092E90180910C01E2E56E
:10161000F1E0882359F08091280287FF07C08EE10E
:10162000DF011D928A95E9F70C94620A86E0F8CFF3
:101630001F93CF93DF93CDB7DEB7AA970FB6F89479
:10164000DEBF0FBECDBF84E592E02091F100FC012A
:101650002193CF01F2E08C359F07B9F780915502B5
:10166000833009F470C0B8F4813009F447C0823087
:1016700009F4B1C08091E80083FF7EC280915402DA
:10168000909155029A3008F077C2E92FF0E0E259C4
:10169000F44E0C94031B8A3009F48CC08B3009F48F
:1016A0006FC0893039F780915402813219F78091E7
:1016B0005802909159020297E8F68091E800877FDE
:1016C0008093E8008091E80082FF38C09091F30099
:1016D0008091F200029731F48091F100813011F095
:1016E000863021F48091F10080932F028091E800F0
:1016F0008B778093E8000E947802BCCF80915402DF
:10170000813A09F0B7CF8091E800877F8093E800A5
:101710008091580290915902892B61F460E280E334
:1017200092E070E00E942A038091E8008B7780931A
:10173000E800A0CF60E090E080E0F3CF809152021B
:101740008111C0CF97CF80915402813A09F092CF96
:101750008091580290915902892B09F08BCF80918A
:10176000E800877F8093E8008091E80080FFFCCF4D
:1017700080910C018093F1008091E8008E77B9CFC1
:1017800080915402813209F075CF80915802909176
:101790005902892B09F06ECF8091E800877F8093F2
:1017A000E8000E9478028091560280930C010E940A
:1017B000030B60CF80915402813209F05BCF80919E
:1017C000E800877F8093E8000E94780280915702AA
:1017D00080932E024FCF80915402813A09F04ACF74
:1017E0008091E800877F8093E8008091E80080FF87
:1017F000FCCF80912E02BECF803899F0823809F05C
:10180000BBC1809158028F70873008F0B5C18093BA
:10181000E9008091EB0085FB882780F91092E900B0
:1018200006C0809150029091510291118260909176
:10183000E800977F9093E8008093F1001092F10008
:101840008091E8008E7794C1882309F482C18230A8
:1018500009F092C180915602811185C18091580290
:101860008F702FEF280F263008F086C18093E90093
:101870002091EB0020FF77C1933031F48091EB0091
:1018800080628093EB006FC19091EB009061909328
:10189000EB0021E030E001C0220F8A95EAF72093A7
:1018A000EA001092EA008091EB008860EACF811193
:1018B00063C1109156021F778091E3008078812BDD
:1018C0008093E3008091E800877F8093E8000E9486
:1018D00078028091E80080FFFCCF8091E30080686F
:1018E0008093E30082E0111183E08093520244C1AF
:1018F0008058823008F040C1809156029091570282
:101900008C3D23E09207A1F583E08A838AE28983F4
:101910004FB7F894DE01139620E03EE051E2E32F4A
:10192000F0E050935700E49120FF03C0E295EF7080
:101930003F5FEF708E2F90E0EA30C0F0C7968D9336
:101940009D932F5F243159F74FBF8091E800877F27
:101950008093E8006AE270E0CE0101960E942A03BB
:101960008091E8008B778093E80006C1C096E7CFAE
:101970004091580250915902292F332723303105C5
:1019800009F444C078F52130310509F46FC08BE3C8
:1019900090E0E2E2F3E02230310509F0EDC0209161
:1019A000E800277F2093E80020915A0230915B02E3
:1019B0008217930708F49C0140E02115310509F0D6
:1019C00064C0411162C08091E80082FDC9CF80915E
:1019D0005202882329F2853019F28091E80083FFB2
:1019E000F2CFBECF21323105A9F12232310509F003
:1019F000C3C04115510509F443C04130510509F0F8
:101A0000BBC086EB90E0ECE2F2E0C9CF99278130D1
:101A10009105C1F0009759F0029709F0ADC0EFE6CB
:101A2000F3E0E4918E2F90E0EFE6F3E007C0E3E807
:101A3000F3E0E4918E2F90E0E3E8F3E0009709F4FF
:101A40009BC0ADCFEDE7F3E0E4918E2F90E0EDE7A2
:101A5000F3E0F4CF4115510571F04130510509F023
:101A60008BC089E090E0EDE4F3E099CF82E190E073
:101A7000EDE5F3E094CF89E090E0E4E3F3E08FCF8D
:101A800080E490E0E2EEF2E08ACF80915202882377
:101A900009F466CF853009F463CF8091E80083FDB7
:101AA0005FCF8091E80082FD8ECF8091E80080FFBB
:101AB00084CF9091F3008091F2002115310519F047
:101AC0008830910550F041E0089709F040E080919E
:101AD000E8008E778093E80070CF44914093F10046
:101AE0003196215031090196E8CF803809F044C081
:101AF0008091E800877F8093E80080915302809373
:101B0000F1009ECE811138C0109156021230A0F51E
:101B10008091E800877F8093E800109353020E9431
:101B20007802112311F084E005C08091E30087FD65
:101B3000FACF81E08093520242E061EC81E00E94A2
:101B4000970242E261EC82E00E9497028091520289
:101B500013C080915602813079F481E0933009F00E
:101B600080E0809351021092E9008091E800877F25
:101B70008093E8000E9478028091E80083FF0AC009
:101B80008091E800877F8093E8008091EB0080627D
:101B90008093EB00AA960FB6F894DEBF0FBECDBFC0
:101BA000DF91CF911F910895882321F00E9464074F
:101BB0000C940D0A0895882339F09091E901982B2F
:101BC0009093E9010C940D0A0895882379F19CEF14
:101BD000980F913A38F4682F80E591E00E94A703AE
:101BE0000C940D0A90E2980F983050F4877091E0B1
:101BF00001C0990F8A95EAF7892F0E946407F0CFF8
:101C00009BE5980F933020F490E080E00C941C0446
:101C100098E5980F973120F490E080E00C9406044A
:101C20008D3E20F00E9465040C943E040895CF93ED
:101C3000C82F882309F46FC08CEF8C0F813AC0F550
:101C400080910C01882311F18091280287FF1EC02A
:101C5000EC2FE695E695E695F0E0E05BFE4F82819D
:101C600090E04C2F477021E030E002C0220F331F7C
:101C70004A95E2F782239323892B91F06C2F80E51C
:101C800091E00E94A7030E940D0A0AC0E2E5F1E07C
:101C900088E591E02191C21789F38E179F07D1F74C
:101CA0006C2F80E591E00E94D103CF910C940D0A36
:101CB00080E28C0F883068F4C77021E030E001C00A
:101CC000220FCA95EAF78091E901822B8093E901FE
:101CD000ECCFEBE5EC0FE33040F4F0E0E35FFE4FD8
:101CE000808190E0CF910C941C04E8E5EC0FE73183
:101CF00050F4F0E0EE0FFF1FE05FFE4F8081918116
:101D0000CF910C940604CD3E30F08C2F0E9420051C
:101D1000CF910C943E04CF9108950F931F93CF93CE
:101D2000DF93C62FD42F022FFC0182818823A1F0DC
:101D300060935E020E949B0390935D0280935C021D
:101D4000C77081E001C0880FCA95EAF7DF91CF9193
:101D50001F910F910C94DB0D80915E02681338C0C7
:101D600080915C0290915D020E948C0386399105FE
:101D700078F510E21D0FCD17B9F080E28C0F883096
:101D800040F4C77081E001C0880FCA95EAF70E944D
:101D9000D40D183048F481E09D2F977001C0880F52
:101DA0009A95EAF70E94DB0D802F0E94170E802F74
:101DB0000E94E50D183098F4D77081E001C0880FBB
:101DC000DA95EAF7DF91CF911F910F910C94D40D22
:101DD000C77081E001C0880FCA95EAF7F3CFDF91A1
:101DE000CF911F910F91089569EE7EEF90E080E012
:101DF0000E94491B60E082E090E00E942B1B60E0A3
:101E000083E090E00E942B1B1092EB011092EC01FA
:101E10001092ED011092EE0160E084E090E00E94EB
:101E20002B1B60E082E290E00E942B1B60E085E0CB
:101E300090E00E942B1B60E086E090E00E942B1B4C
:101E40006FEF87E090E00E942B1B40E050E0BA016A
:101E500088E090E00E943D1B60E08DE090E00E94F1
:101E60002B1B40E050E0BA0188E190E00E943D1B4E
:101E700060E087E190E00E942B1B40E050E0BA0157
:101E80008CE190E00E943D1B70E060E080E290E019
:101E90000E94491B40E050E0BA0188E190E00E94B6
:101EA0003D1B40E050E0BA018FE090E00E943D1BF6
:101EB00040E050E0BA0183E190E00C943D1BCF93E9
:101EC000C0912902C2FB992790F9981799F080FBDD
:101ED000C2F9C09329026091280284E090E00E9438
:101EE0002B1B6C2F82E290E00E942B1B82E0CF9193
:101EF0000C94BC0ACF9108954F925F926F927F929B
:101F00008F929F92AF92BF92CF92DF92EF92FF9209
:101F10000F931F93CF93DF9300D000D00F92CDB7D4
:101F2000DEB77C01FC0183819481892B39F010811B
:101F3000D180812F8D218F3F09F07FC40F900F90AA
:101F40000F900F900F90DF91CF911F910F91FF9005
:101F5000EF90DF90CF90BF90AF909F908F907F9049
:101F60006F905F904F9008950E947507082F682F1B
:101F700089819A810E940F08E12FF0E02CE0D29E27
:101F8000E00DF11D112430E3039FE00DF11D11243C
:101F9000EE0FFF1FE455FF4F05911491043F8CE5B0
:101FA000180709F49CC0D0F5093DECE51E0709F4BB
:101FB00092C00A3DFCE51F0709F49DC0083D2CE5D1
:101FC0001207D1F526E241EE61EEC7010E948D0EA7
:101FD0008091C701877009F4B1CFF701828188230E
:101FE00009F4ACCF8091290282FDA8CF82E00F9046
:101FF0000F900F900F900F90DF91CF911F910F9145
:10200000FF90EF90DF90CF90BF90AF909F908F9018
:102010007F906F905F904F900C94BC0A063F3CE518
:10202000130709F464C008F45EC027E245EE66EECB
:10203000073F9CE5190749F2F7018281882309F4DB
:102040000DC410925E020430FDE51F0708F056C073
:102050000B3F2CE5120730F4C80182509C45449791
:1020600008F056C00E941309909329028093280219
:1020700001319CE5190709F421C108F09FC009301E
:10208000FCE51F0709F404C108F06CC005303CE50D
:10209000130709F4F5C008F052C003309CE5190796
:1020A00009F4E4C008F0E8C08091280281600230A1
:1020B0001C4509F4DEC0609128021091290284E0D9
:1020C00090E00E942B1B612F82E290E00E942B1B6C
:1020D0000E94030B7DCF27E245EE65EE76CF26E228
:1020E00041EE60EE72CF27E245EE64EE6ECF26E25F
:1020F00041EE62EE6ACF28E241E0EFCF02363DE5E5
:10210000130709F4AFCF063A8DE5180709F4AACFF3
:1021100006312CE5120709F0AEC38091E9018A7AF5
:1021200091E009F490E09093700169E2811165E318
:1021300080E591E00E94D1030E940D0A49CF809171
:102140002802806207302CE5120709F492C08091C2
:102150002802806108301C4508F48BC08091280259
:10216000806487C00D308CE5180709F49BC098F493
:10217000809128028E7F0B30ECE51E0709F479C0B0
:10218000809128028C600C301C4508F472C080914C
:1021900028028D7F6EC0809128028F7E0F302CE543
:1021A000120709F466C080912802877F00311C4520
:1021B00008F45FC0809128028F7D5BC00E3F8CE5E4
:1021C000180709F477C050F50531ECE51E0709F44E
:1021D0007FC098F480912802837F03312CE5120799
:1021E00009F447C008F46EC00E94030B90912802C6
:1021F000892F97FB87F980583CC00C3F8CE5180766
:1022000009F442C008F052C08091290281600B3F5E
:102210001C4509F050CF809329024DCF0230FDE5D7
:102220001F0709F461C090F4809129028C7F011589
:102230003DE5130781F390F180912902982F909545
:1022400091708E7F892B90FB81F9E5CF02369DE559
:10225000190709F44FC0063AEDE51E0709F451C00D
:1022600003301D4509F027CF60E03FC08091280270
:102270008260809328021FCF809128028460F9CF6A
:10228000809128028860F5CF809129028260C3CFB7
:102290000E94030B809128028068EBCF8091290275
:1022A0008360B9CF809128028B7FE3CF8091290290
:1022B0008E7FB1CF809129028D7FADCF8091280292
:1022C0008F7BD7CF0E94030B809128028F77D1CFCD
:1022D0008091280282FB992790F921E0922790FBB8
:1022E00082F990FB83F9C5CF61E08EE090E00E9417
:1022F0002B1BE1CE90912802892F8F7E94FF806165
:10230000B8CF90912802892F8E7F90FF8160B1CF46
:102310000E94030B3FEF84E39CE0315080409040EB
:10232000E1F700C000000E94EF0881E0C4C280E035
:10233000C2C2812F902F0E94E707D82ECFC2212F33
:102340002F70C22E107F19F0C29420EFC222DD2020
:10235000B9F0CC2069F080E2800F883010F0811055
:1023600009C08091E901C82AC092E9010E940D0AC2
:10237000802F44C08091E801C82AC092E801F6CFBE
:10238000802F0E94E50DCC20D9F1005E083010F0BE
:10239000811004C08C2D0E94640706C0C0948091F7
:1023A000E801C822C092E8010E940D0A29C0312F1D
:1023B0003F70C32E107F103219F0C29490EFC922E3
:1023C000882059F081E0881609F482C0DD2009F4E4
:1023D0008CC0992009F482C0CBCF2091290222FF22
:1023E00054C0DD2009F44AC0CC2039F08091E901C5
:1023F000C82AC092E9010E940D0A80E00E94170ECF
:10240000EA2DE850FF0B349710F40E943204BB20F1
:10241000A9F08091C70180FD11C0F7011282859556
:10242000859585950E94D80AC7010E947C0F8091EE
:10243000C7018595859585950E94990A85E0F701E4
:10244000DE01119601900D928A95E1F789819A81BA
:102450000E94E7079A81E981F0E02CE0929FE00D6D
:10246000F11D112430E3839FE00DF11D1124EE0FC7
:10247000FF1FE455FF4F8591949160CD80E00E944D
:10248000E50DCC2009F4BCCF85CFDD20A1F09091E3
:10249000EA018C2D892B911003C00E94DB0DB0CF77
:1024A000E1E09E12FACF22FDABCF981709F4A8CF36
:1024B0008093EA01A5CF911006C00E945E078C2D83
:1024C0000E94D40D9DCFF1E09F1609F499CFF5CF6E
:1024D000DD2031F025E0291508F492CF8C2DDDCFD9
:1024E00034E0391508F48CCFEACF992041F389E321
:1024F000881209C09FEFE7EEF3E09150E040F04012
:10250000E1F700C00000802F0E94E50D79CF812FF8
:1025100086958695837061F0813009F071CFC8018E
:102520009370D11002C090E080E00E94060468CF52
:10253000C8019370D11002C090E080E00E941C049A
:102540005FCF802FDD2029F00E9420050E943E04ED
:1025500057CF0E946504FACF812F837009F066C0BF
:10256000D1104ECF802F829586958770880F880F67
:10257000602F6F70462E512C712C612C082E04C0D8
:10258000440C551C661C771C0A94D2F740E050E0BE
:10259000BA0104FF0FC04FE050E060E070E004C0FB
:1025A000440F551F661F771F8A95D2F740955095A7
:1025B00060957095812F869586958370823019F18C
:1025C000D8F40091EB011091EC012091ED013091D4
:1025D000EE01813069F04429552966297729CB011C
:1025E000BA0160237123822393230E94F90A08CF42
:1025F000402A512A622A732ACB01BA01642975291B
:1026000086299729F2CF44295529662977290091EF
:10261000EB011091EC012091ED013091EE01CB0125
:10262000BA016027712782279327DFCF8695DD20A7
:1026300011F0812F8170882309F4E2CE802F8295DA
:1026400086958770880F880F602F6F70462E512CEB
:10265000712C612C082E04C0440C551C661C771C80
:102660000A94D2F740E050E0BA0104FF0FC04FE0F7
:1026700050E060E070E004C0440F551F661F771FF4
:102680008A95D2F74095509560957095812F8695E3
:1026900086958370823019F1D8F40091FA01109177
:1026A000FB012091FC013091FD01813069F044294A
:1026B000552966297729CB01BA016023712382232A
:1026C00093230E947D0A9CCE402A512A622A732AB3
:1026D000CB01BA016429752986299729F2CF4429AB
:1026E0005529662977290091FA011091FB01209163
:1026F000FC013091FD01CB01BA01602771278227CF
:102700009327DFCF1F70DD2029F0812F0E94D80A88
:10271000802FC3CE802F0E94D40D812F0E94990A52
:102720006FCE802F22EF821609F43FC0281570F07B
:1027300030EF8316D1F091EF891691F0DD2009F486
:102740006CC0911015CE812F8F7133C0E3EF8E16C0
:1027500099F1F4EF8F12F2CF8091290282FF3FC0EE
:10276000812F8F71DD20D1F224C0DD20C9F024E05B
:10277000291508F445CE1F7161E070E080E090E01B
:1027800004C0660F771F881F991F1A95D2F7009112
:10279000FA011091FB012091FC013091FD01ADCFB8
:1027A00035E0391508F42CCEE6CF812F8F71D1108A
:1027B000B5CF0E94D80A24CE60E070E0CB01DD20C6
:1027C00009F47FCF1F7161E070E080E090E004C009
:1027D000660F771F881F991F1A95D2F772CFDD20D9
:1027E00089F01F71812F0E94D80A8091290282FDF1
:1027F00007C0E8E01E9FC001112483608093C701D9
:10280000812FD7CF81E00E94BC0AF1E0F91508F0D2
:10281000F7CD82E00E94BC0AF3CD992059F08933AC
:1028200009F071CE2FEF37EE83E021503040804029
:10283000E1F767CE812F8F7171CF85E0DE011196B0
:1028400001900D928A95E1F7F701228189819A81A1
:1028500021118ACB0E94E707082F8ECB06311C4539
:1028600061F58091700169E2811165E380E591E095
:102870000E94A70361CC0B352DE5120709F455CD55
:1028800058F401158CE5180709F442CD0F3D1C459D
:10289000A1F40E94F40E9CCB0C35EDE51E0709F463
:1028A00046CD0D351D4549F48091290282FB8827CC
:1028B00080F991E089270E945F0FF70182811081E2
:1028C0000181882309F435CD812F902F0E9475074F
:1028D000D82E682F812F902F0E940F08E12FF0E053
:1028E0002CE0029FE00DF11D112430E3D39EE00D9A
:1028F000F11D1124EE0FFF1FE455FF4F85919491B8
:102900000E94D6058C01882EF701D2809580929482
:102910005FE095228091C7018770C1F0BD2CDD205A
:10292000B1F0812F807F803421F080E2800F8830E9
:1029300068F08091290282FD09C082E00E94BC0AF1
:102940008091C7018770BB24B3948111B12CA12E53
:10295000A2943FE0A322FBE0FA1508F451CDEA2D42
:10296000F0E0E858F44E0C94031B1F93CF93DF93D1
:1029700080919401807FA9F480919101882389F04E
:102980008091C601D091950160918F017091900165
:10299000A0919201B0919301C62FC72316E0D813DE
:1029A00004C0DF91CF911F91089590E0109711F02E
:1029B000CF3F19F401968770F2CF189F9001199FAD
:1029C000300D1124F901EA56FE4F41814713F2CF31
:1029D00040814613EFCF42814111ECCF43815481B6
:1029E0004A1B5B0B4639510528F7809194018F7083
:1029F000806180939401F901E556FE4F80818F70CC
:102A0000806180838FE891E00E947C0FDF91CF91FD
:102A10001F910C946B07AF92BF92CF92DF92EF920F
:102A2000FF920F931F93CF93DF93CDB7DEB76197DC
:102A30000FB6F894DEBF0FBECDBF8C0185E0F80164
:102A4000DE011D9601900D928A95E1F7F801E28072
:102A50008FE8A82E81E0B82E6091920170919301C9
:102A60006115710509F432C190918F014091900177
:102A7000892F84238F3F09F429C120813181C380AC
:102A8000D480F0909101F601E61BF70BFF2009F4CA
:102A9000E8C080919401582F507FE639F10508F085
:102AA000ABC0511177C0FE2C431321C092131FC03D
:102AB000E1101DC08F70806180939401C5010E9458
:102AC0007C0F80919401F80185838F2D61960FB65C
:102AD000F894DEBF0FBECDBFDF91CF911F910F9154
:102AE000FF90EF90DF90CF90BF90AF900895CD28EA
:102AF00029F0822F83238F3F09F003C180E0F82F54
:102B0000F170DF2E80FF3CC08091C601409195019D
:102B100056E0841315C02D873E878D859E850E94C3
:102B2000CC07292F22952F702230F0F0243018F591
:102B30009F70F1F0F8019581907FD1F4D12C1EC0E7
:102B400090E0589FF001599FF00D1124EA56FE4F76
:102B50006181361306C06081261303C06281E612CC
:102B60000FC001968770D5CF9F7011F0882331F385
:102B7000805E883018F3C8010E947C0FFD2CA5CF21
:102B8000EE2009F4A2CF809194018160809394019A
:102B9000F12C9BCF431306C0921304C0F801EE2022
:102BA00009F479C0C8010E943B08882309F1EE208E
:102BB000F9F080919401803270F020918F01309172
:102BC000900138872F831986DB86CA868C87CE01D1
:102BD00007960E947C0F86E0F801AFE8B1E0019013
:102BE0000D928A95E1F70E94B514FF24F3946DCFFE
:102BF000C8010E947C0FF9CF51110AC08FE891E003
:102C00000E947C0F86E0F50111928A95E9F7C0CF0A
:102C100043130FC092130DC0E1100BC0F801858360
:102C2000C8010E947C0F86E0F50111928A95E9F7B0
:102C30004CCFC8010E943B088823D1F2EE20C1F29C
:102C400080919401803238F220918F01309190016F
:102C50003A8329831B82DD82CC828E83CE0101964A
:102C6000B8CFE639F105F8F6FE2CEE2009F2431351
:102C70001FC092131DC08091940180FD10C0982F39
:102C8000907F69F0F8018583903F31F0982F907F15
:102C9000905F8F70892B8583C8010E947C0F86E02E
:102CA000F801AFE8B1E001900D928A95E1F70DCF00
:102CB000C8010E943B0881118ECF809194018160F0
:102CC00080939401C8010E947C0FFFCEEE2009F48E
:102CD0008FCFC8010E943B08F82E882309F488CFC3
:102CE00086E0F801AFE8B1E001900D928A95E1F736
:102CF00080918F01909190010E94CC070E94B514A1
:102D0000E4CE81E08E25FBCE1F93CF93DF93CDB72A
:102D1000DEB767970FB6F894DEBF0FBECDBF4B8B03
:102D20005C8B6D8B7E8B8F8B61111092E8011A8A00
:102D3000198A85E0FE017396DE011D9601900D92C1
:102D40008A95E1F786E0FE013D96DE011796019037
:102D50000D928A95E1F7CE0107960E940B15882304
:102D600089F016E08091C60190919501891349C0C0
:102D700067960FB6F894DEBF0FBECDBFDF91CF913F
:102D80001F91089586E0FE013796DE0111960190AD
:102D90000D928A95E1F78A859B85892B11F38F81A6
:102DA000988589238F3FE9F22091950130E0C90190
:102DB0000196877099274091C6014817190671F44A
:102DC0000E94030B109295011092C60186E0EFE875
:102DD000F1E0DF011D928A95E9F7C3CF96E0929F5B
:102DE000D001939FB00D1124AA56BE4FFE0131961B
:102DF00001900D929A95E1F7809395010E946B07DF
:102E0000B0CF819FC00111248A569E4F0E940B159E
:102E1000882309F4ADCF8091C60190E001968770B8
:102E200099278093C6019ECF1F920F920FB60F92E3
:102E300011242F933F934F935F936F937F938F93BF
:102E40009F93AF93BF93CF93DF93EF93FF93D09173
:102E5000E900DF708091EC00C82FC17080FDC0E8F0
:102E60001092E9008091F000877F8093F0007894C1
:102E70000E94180B1092E9008091F0008860809306
:102E8000F000CD2BCF70C093E900FF91EF91DF915F
:102E9000CF91BF91AF919F918F917F916F915F91F2
:102EA0004F913F912F910F900FBE0F901F9018954B
:102EB0001F920F920FB60F9211242F933F934F93AF
:102EC0005F936F937F938F939F93AF93BF93EF9392
:102ED000FF938091E10082FF09C08091E20082FFB0
:102EE00005C08091E1008B7F8093E1008091DA0042
:102EF00080FF24C08091D80080FF20C08091DA003C
:102F00008E7F8093DA008091D90080FF9DC080E1A0
:102F100089BD82E189BD09B400FEFDCF81E08093C7
:102F2000520280912D02811109C00E94FE010E946F
:102F3000C9028091E20084608093E2008091E10008
:102F400080FF17C08091E20080FF13C08091E200F3
:102F50008E7F8093E2008091E20080618093E200A6
:102F60008091D80080628093D80019BC85E080935E
:102F700052028091E10084FF2BC08091E20084FF27
:102F800027C080E189BD82E189BD89B5982F917004
:102F900080FFFBCF8091D8008F7D8093D8008091F7
:102FA000E1008F7E8093E1008091E2008F7E80932C
:102FB000E2008091E20081608093E2008091530200
:102FC000882309F447C084E0809352028091520222
:102FD0008091E10083FF27C08091E20083FF23C03E
:102FE0008091E100877F8093E10082E0809352022C
:102FF000109253028091E1008E7F8093E1008091D6
:10300000E2008E7F8093E2008091E20080618093F5
:10301000E20042E060E080E00E9497028091F000D0
:1030200088608093F000FF91EF91BF91AF919F91E5
:103030008F917F916F915F914F913F912F910F9061
:103040000FBE0F901F90189519BC1092520210924B
:103050002D0274CF8091E30087FD93E0909352029C
:10306000B5CF78941F921FB61F9211248F939F9310
:10307000AF93BF938091240290912502A0912602E4
:10308000B09127020196A11DB11D80932402909357
:103090002502A0932602B0932702BF91AF919F9182
:1030A0008F911F901FBE1F9018951F921FB61F92E1
:1030B00011248F939F93AF93BF938091230281112B
:1030C00013C08091240290912502A0912602B09114
:1030D00027024196A11DB11D8093240290932502E1
:1030E000A0932602B0932702BF91AF919F918F9139
:1030F0001F901FBE1F901895CDB7DEB760970FB613
:10310000F894DEBF0FBECDBF84B7877F84BF0FB6F4
:10311000F894A89580916000886180936000109277
:1031200060000FBE80E890E00FB6F89480936100D5
:10313000909361000FBE85B7806885BF85B78068B2
:1031400085BF8AE795E090934F0180934E010E94DE
:10315000FE010E94C9028091E20084608093E20037
:103160007894809152028823A1F01091E9001F7099
:103170009091EC00892F817090FD80E8182B1092BF
:10318000E9008091E80083FD0E94180B1F701093E6
:10319000E90082E084BD93E095BD9AEF97BD8093EE
:1031A0006E0081E90E947C0581E90E947C0581E92D
:1031B0000E947C0581E90E947C0502E411E0D801AF
:1031C0008D918D018F3F11F00E947C05B1E00E348E
:1031D0001B07A9F788E0EEEFF1E0DF01282F1D9231
:1031E0002A95E9F7E2EFF1E0DF011D928A95E9F710
:1031F00090E080E00E94251B893E9E4F11F00E94C6
:10320000F40E82E090E00E941D1B809306020E9453
:10321000130990932902809328020E942109EFEF5D
:10322000F6E721E0E150F0402040E1F700C0000067
:103230000E9421098091FE0180FF08C06FEF7FEF9F
:1032400090E080E00E94491B0E94EF0883E090E03C
:103250000E941D1B682F70E090E080E00E94F90A38
:1032600080E091E09093200280931F0268E1C62ED7
:10327000D12C70E4872EE6E0AE2EE2E0BE2E50E1C7
:10328000952E8091520212E1853009F451C10E94BD
:103290002109882359F08FB7F89440912402509166
:1032A000250260912602709127028FBFEEEFF1E0B8
:1032B000A7E0B2E010E000E0702F819191912D9194
:1032C0003D912817390709F443C12827392760E0C1
:1032D000EE24E394F12CA70142235323452B09F458
:1032E00031C16F83788797012823392391E0232BFD
:1032F00009F490E099870E949B038160782F9B8757
:103300008A874F81588569858B850E948416000FB6
:10331000111FF801E95FFD4F80819181E826F926B0
:10332000F182E08286E0E7E1F2E0DE0111960190B1
:103330000D928A95E1F7F0901902E0901A0210912F
:103340001B0200911C021092190210921A02109294
:103350001B0210921C028F2D8E2909F448C0809107
:103360001502909116020E948C039C01909111020B
:10337000992309F42FC125313105C8F19F3F19F078
:103380009F5F90931102FF2059F00E9400059FEF6C
:103390001F140CF491E0899F802D11248093190251
:1033A000EE2059F00E9400059FEF1E140CF491E0EE
:1033B000899F802D112480931A02309119023323A2
:1033C000B1F020911A02222391F045EB3403C001A1
:1033D0001124992309F4D3C09093190245EB2403D7
:1033E00090011124332309F4CEC030931A02812FA7
:1033F000802B09F448C080911302909114020E941E
:103400008C039C0190911002992309F4DEC02135B0
:103410003105C8F19F3F19F09F5F9093100211236F
:1034200059F00E94DE049FEF11160CF491E0899F81
:10343000802D112480931B02002359F00E94DE048A
:103440009FEF10160CF491E0899F802D112480933A
:103450001C0230911B023323B1F020911C02222365
:1034600091F045EB3403C0011124992309F48FC076
:1034700090931B0245EB240390011124332309F49C
:103480008AC030931C028091190290911A02892BF4
:1034900090911B02892B90911C02892B11F00E94A4
:1034A0003E0486E0FE013196A7E1B2E001900D9264
:1034B0008A95E1F70E94320490910F02891709F46E
:1034C000E0CE80930F02DBCE80915202843009F16E
:1034D000109223020FB6F894A895C09260000FBE18
:1034E0008092600083B7817F846083BF83B78160EF
:1034F00083BF7894889583B78E7F83BF0FB6F89487
:10350000A8958091600088618093600010926000AF
:103510000FBE80915102882359F00E942109EEEFDD
:10352000F1E081919191892BD1F5AE16BF06C9F7D3
:1035300080915202853009F4C7CF0E94030B0E948C
:103540003204A5CE6F5FEE0CFF1C6C3009F0C3CEC9
:103550000F5F1F4F0430110509F0AECE8FEF8C873F
:103560008D871E860E949B038160782F988B8F87A2
:103570004C855D856E8588890E948416D3CE81E056
:10358000809319022BCF81E080931A0230CF81E023
:1035900080931B026FCF81E080931C0274CF99BC93
:1035A00019BD09B400FEFDCF8091D8008F7D8093B6
:1035B000D8008091E00082608093E0008091E0007C
:1035C00081FDFCCF0E94030BB3CF2B30310508F0F7
:1035D00023CF59CF2B30310508F0D2CE08CF97FB3F
:1035E000072E16F4009407D077FD09D00E94091B1E
:1035F00007FC05D03EF4909581959F4F08957095F6
:1036000061957F4F0895EE0FFF1F0590F491E02D17
:103610000994AA1BBB1B51E107C0AA1FBB1FA61719
:10362000B70710F0A61BB70B881F991F5A95A9F76B
:1036300080959095BC01CD010895F999FECF92BD7A
:1036400081BDF89A992780B50895A8E1B0E042E0DD
:1036500050E00C94511B262FF999FECF92BD81BDED
:10366000F89A019700B4021639F01FBA20BD0FB6C0
:10367000F894FA9AF99A0FBE08950396272F0E949C
:103680002C1B0E942B1B252F0E942C1B242F0C94DB
:103690002C1B0196272F0E942C1B0C942B1BDC014A
:1036A000CB01FC01F999FECF06C0F2BDE1BDF89A4D
:1036B000319600B40D9241505040B8F70895FB0187
:1036C000DC0104C08D910190801921F441505040DB
:1036D000C8F7881B990B0895F894FFCFFC0B240CB6
:1036E000BC0D240CBC0D570C780CBC0D750D820D57
:1036F0009F119F11D711D7118712A112001200122A
:08370000AC1282139113911326
:103708008903AF088E088A088608880301818283A6
:10371800E200E900EA00B500B600B700CD00830179
:10372800CC008A019201940121022302240225027D
:10373800260227022A02B300B4006F00700091919C
:0E3748009191626262626262626262626262B9
:00000001FF
